{
    "_format": "hh-sol-artifact-1",
    "contractName": "Domains",
    "sourceName": "contracts/Domains.sol",
    "abi": [
        {
            "inputs": [
                {
                    "internalType": "string",
                    "name": "_tld",
                    "type": "string"
                }
            ],
            "stateMutability": "payable",
            "type": "constructor"
        },
        {
            "inputs": [],
            "name": "AlreadyRegistered",
            "type": "error"
        },
        {
            "inputs": [
                {
                    "internalType": "string",
                    "name": "name",
                    "type": "string"
                }
            ],
            "name": "InvalidName",
            "type": "error"
        },
        {
            "inputs": [],
            "name": "Unauthorized",
            "type": "error"
        },
        {
            "anonymous": false,
            "inputs": [
                {
                    "indexed": true,
                    "internalType": "address",
                    "name": "owner",
                    "type": "address"
                },
                {
                    "indexed": true,
                    "internalType": "address",
                    "name": "approved",
                    "type": "address"
                },
                {
                    "indexed": true,
                    "internalType": "uint256",
                    "name": "tokenId",
                    "type": "uint256"
                }
            ],
            "name": "Approval",
            "type": "event"
        },
        {
            "anonymous": false,
            "inputs": [
                {
                    "indexed": true,
                    "internalType": "address",
                    "name": "owner",
                    "type": "address"
                },
                {
                    "indexed": true,
                    "internalType": "address",
                    "name": "operator",
                    "type": "address"
                },
                {
                    "indexed": false,
                    "internalType": "bool",
                    "name": "approved",
                    "type": "bool"
                }
            ],
            "name": "ApprovalForAll",
            "type": "event"
        },
        {
            "anonymous": false,
            "inputs": [
                {
                    "indexed": true,
                    "internalType": "address",
                    "name": "from",
                    "type": "address"
                },
                {
                    "indexed": true,
                    "internalType": "address",
                    "name": "to",
                    "type": "address"
                },
                {
                    "indexed": true,
                    "internalType": "uint256",
                    "name": "tokenId",
                    "type": "uint256"
                }
            ],
            "name": "Transfer",
            "type": "event"
        },
        {
            "inputs": [
                {
                    "internalType": "address",
                    "name": "to",
                    "type": "address"
                },
                {
                    "internalType": "uint256",
                    "name": "tokenId",
                    "type": "uint256"
                }
            ],
            "name": "approve",
            "outputs": [],
            "stateMutability": "nonpayable",
            "type": "function"
        },
        {
            "inputs": [
                {
                    "internalType": "address",
                    "name": "owner",
                    "type": "address"
                }
            ],
            "name": "balanceOf",
            "outputs": [
                {
                    "internalType": "uint256",
                    "name": "",
                    "type": "uint256"
                }
            ],
            "stateMutability": "view",
            "type": "function"
        },
        {
            "inputs": [
                {
                    "internalType": "string",
                    "name": "",
                    "type": "string"
                }
            ],
            "name": "domains",
            "outputs": [
                {
                    "internalType": "address",
                    "name": "",
                    "type": "address"
                }
            ],
            "stateMutability": "view",
            "type": "function"
        },
        {
            "inputs": [
                {
                    "internalType": "string",
                    "name": "name",
                    "type": "string"
                }
            ],
            "name": "getAddress",
            "outputs": [
                {
                    "internalType": "address",
                    "name": "",
                    "type": "address"
                }
            ],
            "stateMutability": "view",
            "type": "function"
        },
        {
            "inputs": [],
            "name": "getAllNames",
            "outputs": [
                {
                    "internalType": "string[]",
                    "name": "",
                    "type": "string[]"
                }
            ],
            "stateMutability": "view",
            "type": "function"
        },
        {
            "inputs": [
                {
                    "internalType": "uint256",
                    "name": "tokenId",
                    "type": "uint256"
                }
            ],
            "name": "getApproved",
            "outputs": [
                {
                    "internalType": "address",
                    "name": "",
                    "type": "address"
                }
            ],
            "stateMutability": "view",
            "type": "function"
        },
        {
            "inputs": [
                {
                    "internalType": "string",
                    "name": "name",
                    "type": "string"
                }
            ],
            "name": "getRecord",
            "outputs": [
                {
                    "internalType": "string",
                    "name": "",
                    "type": "string"
                }
            ],
            "stateMutability": "view",
            "type": "function"
        },
        {
            "inputs": [
                {
                    "internalType": "address",
                    "name": "owner",
                    "type": "address"
                },
                {
                    "internalType": "address",
                    "name": "operator",
                    "type": "address"
                }
            ],
            "name": "isApprovedForAll",
            "outputs": [
                {
                    "internalType": "bool",
                    "name": "",
                    "type": "bool"
                }
            ],
            "stateMutability": "view",
            "type": "function"
        },
        {
            "inputs": [],
            "name": "name",
            "outputs": [
                {
                    "internalType": "string",
                    "name": "",
                    "type": "string"
                }
            ],
            "stateMutability": "view",
            "type": "function"
        },
        {
            "inputs": [
                {
                    "internalType": "uint256",
                    "name": "",
                    "type": "uint256"
                }
            ],
            "name": "names",
            "outputs": [
                {
                    "internalType": "string",
                    "name": "",
                    "type": "string"
                }
            ],
            "stateMutability": "view",
            "type": "function"
        },
        {
            "inputs": [
                {
                    "internalType": "uint256",
                    "name": "tokenId",
                    "type": "uint256"
                }
            ],
            "name": "ownerOf",
            "outputs": [
                {
                    "internalType": "address",
                    "name": "",
                    "type": "address"
                }
            ],
            "stateMutability": "view",
            "type": "function"
        },
        {
            "inputs": [
                {
                    "internalType": "string",
                    "name": "name",
                    "type": "string"
                }
            ],
            "name": "price",
            "outputs": [
                {
                    "internalType": "uint256",
                    "name": "",
                    "type": "uint256"
                }
            ],
            "stateMutability": "pure",
            "type": "function"
        },
        {
            "inputs": [
                {
                    "internalType": "string",
                    "name": "",
                    "type": "string"
                }
            ],
            "name": "records",
            "outputs": [
                {
                    "internalType": "string",
                    "name": "",
                    "type": "string"
                }
            ],
            "stateMutability": "view",
            "type": "function"
        },
        {
            "inputs": [
                {
                    "internalType": "string",
                    "name": "name",
                    "type": "string"
                }
            ],
            "name": "register",
            "outputs": [],
            "stateMutability": "payable",
            "type": "function"
        },
        {
            "inputs": [
                {
                    "internalType": "address",
                    "name": "from",
                    "type": "address"
                },
                {
                    "internalType": "address",
                    "name": "to",
                    "type": "address"
                },
                {
                    "internalType": "uint256",
                    "name": "tokenId",
                    "type": "uint256"
                }
            ],
            "name": "safeTransferFrom",
            "outputs": [],
            "stateMutability": "nonpayable",
            "type": "function"
        },
        {
            "inputs": [
                {
                    "internalType": "address",
                    "name": "from",
                    "type": "address"
                },
                {
                    "internalType": "address",
                    "name": "to",
                    "type": "address"
                },
                {
                    "internalType": "uint256",
                    "name": "tokenId",
                    "type": "uint256"
                },
                {
                    "internalType": "bytes",
                    "name": "_data",
                    "type": "bytes"
                }
            ],
            "name": "safeTransferFrom",
            "outputs": [],
            "stateMutability": "nonpayable",
            "type": "function"
        },
        {
            "inputs": [
                {
                    "internalType": "address",
                    "name": "operator",
                    "type": "address"
                },
                {
                    "internalType": "bool",
                    "name": "approved",
                    "type": "bool"
                }
            ],
            "name": "setApprovalForAll",
            "outputs": [],
            "stateMutability": "nonpayable",
            "type": "function"
        },
        {
            "inputs": [
                {
                    "internalType": "string",
                    "name": "name",
                    "type": "string"
                },
                {
                    "internalType": "string",
                    "name": "record",
                    "type": "string"
                }
            ],
            "name": "setRecord",
            "outputs": [],
            "stateMutability": "nonpayable",
            "type": "function"
        },
        {
            "inputs": [
                {
                    "internalType": "bytes4",
                    "name": "interfaceId",
                    "type": "bytes4"
                }
            ],
            "name": "supportsInterface",
            "outputs": [
                {
                    "internalType": "bool",
                    "name": "",
                    "type": "bool"
                }
            ],
            "stateMutability": "view",
            "type": "function"
        },
        {
            "inputs": [],
            "name": "symbol",
            "outputs": [
                {
                    "internalType": "string",
                    "name": "",
                    "type": "string"
                }
            ],
            "stateMutability": "view",
            "type": "function"
        },
        {
            "inputs": [],
            "name": "tld",
            "outputs": [
                {
                    "internalType": "string",
                    "name": "",
                    "type": "string"
                }
            ],
            "stateMutability": "view",
            "type": "function"
        },
        {
            "inputs": [
                {
                    "internalType": "uint256",
                    "name": "tokenId",
                    "type": "uint256"
                }
            ],
            "name": "tokenURI",
            "outputs": [
                {
                    "internalType": "string",
                    "name": "",
                    "type": "string"
                }
            ],
            "stateMutability": "view",
            "type": "function"
        },
        {
            "inputs": [
                {
                    "internalType": "address",
                    "name": "from",
                    "type": "address"
                },
                {
                    "internalType": "address",
                    "name": "to",
                    "type": "address"
                },
                {
                    "internalType": "uint256",
                    "name": "tokenId",
                    "type": "uint256"
                }
            ],
            "name": "transferFrom",
            "outputs": [],
            "stateMutability": "nonpayable",
            "type": "function"
        },
        {
            "inputs": [
                {
                    "internalType": "string",
                    "name": "name",
                    "type": "string"
                }
            ],
            "name": "valid",
            "outputs": [
                {
                    "internalType": "bool",
                    "name": "",
                    "type": "bool"
                }
            ],
            "stateMutability": "pure",
            "type": "function"
        }
    ],
    "bytecode": "0x608060405260405180610a400160405280610a07815260200162005190610a079139600990805190602001906200003892919062000287565b506040518060400160405280600d81526020017f3c2f746578743e3c2f7376673e00000000000000000000000000000000000000815250600a90805190602001906200008692919062000287565b5060405162005b9738038062005b978339818101604052810190620000ac9190620004d4565b6040518060400160405280601181526020017f416c6669204e616d6520536572766963650000000000000000000000000000008152506040518060400160405280600381526020017f414e53000000000000000000000000000000000000000000000000000000000081525081600090805190602001906200013092919062000287565b5080600190805190602001906200014992919062000287565b50505080600890805190602001906200016492919062000287565b50620001b16040518060400160405280601881526020017f2573206e616d652073657276696365206465706c6f796564000000000000000081525082620001b860201b62001ab91760201c565b5062000622565b6200025a8282604051602401620001d192919062000582565b6040516020818303038152906040527f4b5c4277000000000000000000000000000000000000000000000000000000007bffffffffffffffffffffffffffffffffffffffffffffffffffffffff19166020820180517bffffffffffffffffffffffffffffffffffffffffffffffffffffffff83818316178352505050506200025e60201b60201c565b5050565b60008151905060006a636f6e736f6c652e6c6f679050602083016000808483855afa5050505050565b8280546200029590620005ec565b90600052602060002090601f016020900481019282620002b9576000855562000305565b82601f10620002d457805160ff191683800117855562000305565b8280016001018555821562000305579182015b8281111562000304578251825591602001919060010190620002e7565b5b50905062000314919062000318565b5090565b5b808211156200033357600081600090555060010162000319565b5090565b6000604051905090565b600080fd5b600080fd5b600080fd5b600080fd5b6000601f19601f8301169050919050565b7f4e487b7100000000000000000000000000000000000000000000000000000000600052604160045260246000fd5b620003a08262000355565b810181811067ffffffffffffffff82111715620003c257620003c162000366565b5b80604052505050565b6000620003d762000337565b9050620003e5828262000395565b919050565b600067ffffffffffffffff82111562000408576200040762000366565b5b620004138262000355565b9050602081019050919050565b60005b838110156200044057808201518184015260208101905062000423565b8381111562000450576000848401525b50505050565b60006200046d6200046784620003ea565b620003cb565b9050828152602081018484840111156200048c576200048b62000350565b5b6200049984828562000420565b509392505050565b600082601f830112620004b957620004b86200034b565b5b8151620004cb84826020860162000456565b91505092915050565b600060208284031215620004ed57620004ec62000341565b5b600082015167ffffffffffffffff8111156200050e576200050d62000346565b5b6200051c84828501620004a1565b91505092915050565b600081519050919050565b600082825260208201905092915050565b60006200054e8262000525565b6200055a818562000530565b93506200056c81856020860162000420565b620005778162000355565b840191505092915050565b600060408201905081810360008301526200059e818562000541565b90508181036020830152620005b4818462000541565b90509392505050565b7f4e487b7100000000000000000000000000000000000000000000000000000000600052602260045260246000fd5b600060028204905060018216806200060557607f821691505b602082108114156200061c576200061b620005bd565b5b50919050565b614b5e80620006326000396000f3fe60806040526004361061014b5760003560e01c806370a08231116100b6578063c1880a981161006f578063c1880a9814610500578063c87b56dd14610529578063e985e9c514610566578063f2c298be146105a3578063fb825e5f146105bf578063fe2c6198146105ea5761014b565b806370a08231146103cc57806395d89b41146104095780639791c09714610434578063a22cb46514610471578063b88d4fde1461049a578063bf40fac1146104c35761014b565b8063264492351161010857806326449235146102845780632d551432146102c157806342842e0e146102ec5780634622ab0314610315578063541e771d146103525780636352211e1461038f5761014b565b806301ffc9a71461015057806306fdde031461018d578063081812fc146101b8578063095ea7b3146101f557806311dd88451461021e57806323b872dd1461025b575b600080fd5b34801561015c57600080fd5b5061017760048036038101906101729190612f9e565b610627565b6040516101849190612fe6565b60405180910390f35b34801561019957600080fd5b506101a2610709565b6040516101af919061309a565b60405180910390f35b3480156101c457600080fd5b506101df60048036038101906101da91906130f2565b61079b565b6040516101ec9190613160565b60405180910390f35b34801561020157600080fd5b5061021c600480360381019061021791906131a7565b610820565b005b34801561022a57600080fd5b506102456004803603810190610240919061324c565b610938565b604051610252919061309a565b60405180910390f35b34801561026757600080fd5b50610282600480360381019061027d9190613299565b6109eb565b005b34801561029057600080fd5b506102ab60048036038101906102a6919061341c565b610a4b565b6040516102b89190613160565b60405180910390f35b3480156102cd57600080fd5b506102d6610a94565b6040516102e3919061309a565b60405180910390f35b3480156102f857600080fd5b50610313600480360381019061030e9190613299565b610b22565b005b34801561032157600080fd5b5061033c600480360381019061033791906130f2565b610b42565b604051610349919061309a565b60405180910390f35b34801561035e57600080fd5b506103796004803603810190610374919061341c565b610be2565b604051610386919061309a565b60405180910390f35b34801561039b57600080fd5b506103b660048036038101906103b191906130f2565b610c98565b6040516103c39190613160565b60405180910390f35b3480156103d857600080fd5b506103f360048036038101906103ee9190613465565b610d4a565b60405161040091906134a1565b60405180910390f35b34801561041557600080fd5b5061041e610e02565b60405161042b919061309a565b60405180910390f35b34801561044057600080fd5b5061045b6004803603810190610456919061324c565b610e94565b6040516104689190612fe6565b60405180910390f35b34801561047d57600080fd5b50610498600480360381019061049391906134e8565b610f48565b005b3480156104a657600080fd5b506104c160048036038101906104bc91906135c9565b610f5e565b005b3480156104cf57600080fd5b506104ea60048036038101906104e5919061324c565b610fc0565b6040516104f79190613160565b60405180910390f35b34801561050c57600080fd5b506105276004803603810190610522919061364c565b61100b565b005b34801561053557600080fd5b50610550600480360381019061054b91906130f2565b6110e6565b60405161055d919061309a565b60405180910390f35b34801561057257600080fd5b5061058d600480360381019061058891906136cd565b611238565b60405161059a9190612fe6565b60405180910390f35b6105bd60048036038101906105b8919061324c565b6112cc565b005b3480156105cb57600080fd5b506105d4611835565b6040516105e19190613819565b60405180910390f35b3480156105f657600080fd5b50610611600480360381019061060c919061324c565b611a13565b60405161061e91906134a1565b60405180910390f35b60007f80ac58cd000000000000000000000000000000000000000000000000000000007bffffffffffffffffffffffffffffffffffffffffffffffffffffffff1916827bffffffffffffffffffffffffffffffffffffffffffffffffffffffff191614806106f257507f5b5e139f000000000000000000000000000000000000000000000000000000007bffffffffffffffffffffffffffffffffffffffffffffffffffffffff1916827bffffffffffffffffffffffffffffffffffffffffffffffffffffffff1916145b80610702575061070182611b55565b5b9050919050565b6060600080546107189061386a565b80601f01602080910402602001604051908101604052809291908181526020018280546107449061386a565b80156107915780601f1061076657610100808354040283529160200191610791565b820191906000526020600020905b81548152906001019060200180831161077457829003601f168201915b5050505050905090565b60006107a682611bbf565b6107e5576040517f08c379a00000000000000000000000000000000000000000000000000000000081526004016107dc9061390e565b60405180910390fd5b6004600083815260200190815260200160002060009054906101000a900473ffffffffffffffffffffffffffffffffffffffff169050919050565b600061082b82610c98565b90508073ffffffffffffffffffffffffffffffffffffffff168373ffffffffffffffffffffffffffffffffffffffff16141561089c576040517f08c379a0000000000000000000000000000000000000000000000000000000008152600401610893906139a0565b60405180910390fd5b8073ffffffffffffffffffffffffffffffffffffffff166108bb611c2b565b73ffffffffffffffffffffffffffffffffffffffff1614806108ea57506108e9816108e4611c2b565b611238565b5b610929576040517f08c379a000000000000000000000000000000000000000000000000000000000815260040161092090613a32565b60405180910390fd5b6109338383611c33565b505050565b6060600d838360405161094c929190613a82565b908152602001604051809103902080546109659061386a565b80601f01602080910402602001604051908101604052809291908181526020018280546109919061386a565b80156109de5780601f106109b3576101008083540402835291602001916109de565b820191906000526020600020905b8154815290600101906020018083116109c157829003601f168201915b5050505050905092915050565b6109fc6109f6611c2b565b82611cec565b610a3b576040517f08c379a0000000000000000000000000000000000000000000000000000000008152600401610a3290613b0d565b60405180910390fd5b610a46838383611dca565b505050565b600c818051602081018201805184825260208301602085012081835280955050505050506000915054906101000a900473ffffffffffffffffffffffffffffffffffffffff1681565b60088054610aa19061386a565b80601f0160208091040260200160405190810160405280929190818152602001828054610acd9061386a565b8015610b1a5780601f10610aef57610100808354040283529160200191610b1a565b820191906000526020600020905b815481529060010190602001808311610afd57829003601f168201915b505050505081565b610b3d83838360405180602001604052806000815250610f5e565b505050565b600b6020528060005260406000206000915090508054610b619061386a565b80601f0160208091040260200160405190810160405280929190818152602001828054610b8d9061386a565b8015610bda5780601f10610baf57610100808354040283529160200191610bda565b820191906000526020600020905b815481529060010190602001808311610bbd57829003601f168201915b505050505081565b600d818051602081018201805184825260208301602085012081835280955050505050506000915090508054610c179061386a565b80601f0160208091040260200160405190810160405280929190818152602001828054610c439061386a565b8015610c905780601f10610c6557610100808354040283529160200191610c90565b820191906000526020600020905b815481529060010190602001808311610c7357829003601f168201915b505050505081565b6000806002600084815260200190815260200160002060009054906101000a900473ffffffffffffffffffffffffffffffffffffffff169050600073ffffffffffffffffffffffffffffffffffffffff168173ffffffffffffffffffffffffffffffffffffffff161415610d41576040517f08c379a0000000000000000000000000000000000000000000000000000000008152600401610d3890613b9f565b60405180910390fd5b80915050919050565b60008073ffffffffffffffffffffffffffffffffffffffff168273ffffffffffffffffffffffffffffffffffffffff161415610dbb576040517f08c379a0000000000000000000000000000000000000000000000000000000008152600401610db290613c31565b60405180910390fd5b600360008373ffffffffffffffffffffffffffffffffffffffff1673ffffffffffffffffffffffffffffffffffffffff168152602001908152602001600020549050919050565b606060018054610e119061386a565b80601f0160208091040260200160405190810160405280929190818152602001828054610e3d9061386a565b8015610e8a5780601f10610e5f57610100808354040283529160200191610e8a565b820191906000526020600020905b815481529060010190602001808311610e6d57829003601f168201915b5050505050905090565b60006003610ee584848080601f016020809104026020016040519081016040528093929190818152602001838380828437600081840152601f19601f82011690508083019250505050505050612031565b10158015610f405750600a610f3d84848080601f016020809104026020016040519081016040528093929190818152602001838380828437600081840152601f19601f82011690508083019250505050505050612031565b11155b905092915050565b610f5a610f53611c2b565b83836121e6565b5050565b610f6f610f69611c2b565b83611cec565b610fae576040517f08c379a0000000000000000000000000000000000000000000000000000000008152600401610fa590613b0d565b60405180910390fd5b610fba84848484612353565b50505050565b6000600c8383604051610fd4929190613a82565b908152602001604051809103902060009054906101000a900473ffffffffffffffffffffffffffffffffffffffff16905092915050565b600c848460405161101d929190613a82565b908152602001604051809103902060009054906101000a900473ffffffffffffffffffffffffffffffffffffffff1673ffffffffffffffffffffffffffffffffffffffff163373ffffffffffffffffffffffffffffffffffffffff16146110b0576040517f82b4290000000000000000000000000000000000000000000000000000000000815260040160405180910390fd5b8181600d86866040516110c4929190613a82565b908152602001604051809103902091906110df929190612e09565b5050505050565b60606110f182611bbf565b611130576040517f08c379a000000000000000000000000000000000000000000000000000000000815260040161112790613cc3565b60405180910390fd5b60006006600084815260200190815260200160002080546111509061386a565b80601f016020809104026020016040519081016040528092919081815260200182805461117c9061386a565b80156111c95780601f1061119e576101008083540402835291602001916111c9565b820191906000526020600020905b8154815290600101906020018083116111ac57829003601f168201915b5050505050905060006111da6123af565b90506000815114156111f0578192505050611233565b60008251111561122557808260405160200161120d929190613d14565b60405160208183030381529060405292505050611233565b61122e846123c6565b925050505b919050565b6000600560008473ffffffffffffffffffffffffffffffffffffffff1673ffffffffffffffffffffffffffffffffffffffff16815260200190815260200160002060008373ffffffffffffffffffffffffffffffffffffffff1673ffffffffffffffffffffffffffffffffffffffff16815260200190815260200160002060009054906101000a900460ff16905092915050565b600073ffffffffffffffffffffffffffffffffffffffff16600c83836040516112f6929190613a82565b908152602001604051809103902060009054906101000a900473ffffffffffffffffffffffffffffffffffffffff1673ffffffffffffffffffffffffffffffffffffffff1614611372576040517f3a81d6fc00000000000000000000000000000000000000000000000000000000815260040160405180910390fd5b61137c8282610e94565b6113bf5781816040517f7f19f48d0000000000000000000000000000000000000000000000000000000081526004016113b6929190613d65565b60405180910390fd5b600073ffffffffffffffffffffffffffffffffffffffff16600c83836040516113e9929190613a82565b908152602001604051809103902060009054906101000a900473ffffffffffffffffffffffffffffffffffffffff1673ffffffffffffffffffffffffffffffffffffffff161461143857600080fd5b60003073ffffffffffffffffffffffffffffffffffffffff1663fe2c619884846040518363ffffffff1660e01b8152600401611475929190613d65565b602060405180830381865afa158015611492573d6000803e3d6000fd5b505050506040513d601f19601f820116820180604052508101906114b69190613d9e565b9050803410156114fb576040517f08c379a00000000000000000000000000000000000000000000000000000000081526004016114f290613e17565b60405180910390fd5b60008383600860405160200161151393929190613f17565b60405160208183030381529060405290506000600982600a60405160200161153d93929190613f48565b6040516020818303038152906040529050600061155a600761246d565b905060006115ab87878080601f016020809104026020016040519081016040528093929190818152602001838380828437600081840152601f19601f82011690508083019250505050505050612031565b905060006115b88261247b565b90506116ac604051806060016040528060318152602001614a7f6031913989898080601f016020809104026020016040519081016040528093929190818152602001838380828437600081840152601f19601f82011690508083019250505050505050600880546116289061386a565b80601f01602080910402602001604051908101604052809291908181526020018280546116549061386a565b80156116a15780601f10611676576101008083540402835291602001916116a1565b820191906000526020600020905b81548152906001019060200180831161168457829003601f168201915b5050505050866125dc565b60006116e2866116bb8761267e565b846040516020016116ce939291906140f5565b60405160208183030381529060405261267e565b90506000816040516020016116f7919061419e565b6040516020818303038152906040529050611729604051806060016040528060398152602001614a4660399139612816565b6117686040518060400160405280600e81526020017f46696e616c20746f6b656e55524900000000000000000000000000000000000081525082611ab9565b611789604051806060016040528060398152602001614ab060399139612816565b61179333866128af565b61179d85826128cd565b33600c8b8b6040516117b0929190613a82565b908152602001604051809103902060006101000a81548173ffffffffffffffffffffffffffffffffffffffff021916908373ffffffffffffffffffffffffffffffffffffffff1602179055508989600b6000888152602001908152602001600020919061181e929190612e09565b506118296007612941565b50505050505050505050565b60606118756040518060400160405280601f81526020017f47657474696e6720616c6c206e616d65732066726f6d20636f6e747261637400815250612816565b6000611881600761246d565b67ffffffffffffffff81111561189a576118996132f1565b5b6040519080825280602002602001820160405280156118cd57816020015b60608152602001906001900390816118b85790505b50905060005b6118dd600761246d565b811015611a0b57600b600082815260200190815260200160002080546119029061386a565b80601f016020809104026020016040519081016040528092919081815260200182805461192e9061386a565b801561197b5780601f106119505761010080835404028352916020019161197b565b820191906000526020600020905b81548152906001019060200180831161195e57829003601f168201915b5050505050828281518110611993576119926141c0565b5b60200260200101819052506119f86040518060400160405280601781526020017f4e616d6520666f7220746f6b656e202564206973202573000000000000000000815250828484815181106119eb576119ea6141c0565b5b6020026020010151612957565b8080611a039061421e565b9150506118d3565b508091505090565b600080611a6384848080601f016020809104026020016040519081016040528093929190818152602001838380828437600081840152601f19601f82011690508083019250505050505050612031565b905060008111611a7257600080fd5b6003811415611a8c576706f05b59d3b20000915050611ab3565b6004811415611aa657670429d069189e0000915050611ab3565b67016345785d8a00009150505b92915050565b611b518282604051602401611acf929190614267565b6040516020818303038152906040527f4b5c4277000000000000000000000000000000000000000000000000000000007bffffffffffffffffffffffffffffffffffffffffffffffffffffffff19166020820180517bffffffffffffffffffffffffffffffffffffffffffffffffffffffff83818316178352505050506129f6565b5050565b60007f01ffc9a7000000000000000000000000000000000000000000000000000000007bffffffffffffffffffffffffffffffffffffffffffffffffffffffff1916827bffffffffffffffffffffffffffffffffffffffffffffffffffffffff1916149050919050565b60008073ffffffffffffffffffffffffffffffffffffffff166002600084815260200190815260200160002060009054906101000a900473ffffffffffffffffffffffffffffffffffffffff1673ffffffffffffffffffffffffffffffffffffffff1614159050919050565b600033905090565b816004600083815260200190815260200160002060006101000a81548173ffffffffffffffffffffffffffffffffffffffff021916908373ffffffffffffffffffffffffffffffffffffffff160217905550808273ffffffffffffffffffffffffffffffffffffffff16611ca683610c98565b73ffffffffffffffffffffffffffffffffffffffff167f8c5be1e5ebec7d5bd14f71427d1e84f3dd0314c0f7b2291e5b200ac8c7c3b92560405160405180910390a45050565b6000611cf782611bbf565b611d36576040517f08c379a0000000000000000000000000000000000000000000000000000000008152600401611d2d90614310565b60405180910390fd5b6000611d4183610c98565b90508073ffffffffffffffffffffffffffffffffffffffff168473ffffffffffffffffffffffffffffffffffffffff161480611db057508373ffffffffffffffffffffffffffffffffffffffff16611d988461079b565b73ffffffffffffffffffffffffffffffffffffffff16145b80611dc15750611dc08185611238565b5b91505092915050565b8273ffffffffffffffffffffffffffffffffffffffff16611dea82610c98565b73ffffffffffffffffffffffffffffffffffffffff1614611e40576040517f08c379a0000000000000000000000000000000000000000000000000000000008152600401611e37906143a2565b60405180910390fd5b600073ffffffffffffffffffffffffffffffffffffffff168273ffffffffffffffffffffffffffffffffffffffff161415611eb0576040517f08c379a0000000000000000000000000000000000000000000000000000000008152600401611ea790614434565b60405180910390fd5b611ebb838383612a1f565b611ec6600082611c33565b6001600360008573ffffffffffffffffffffffffffffffffffffffff1673ffffffffffffffffffffffffffffffffffffffff1681526020019081526020016000206000828254611f169190614454565b925050819055506001600360008473ffffffffffffffffffffffffffffffffffffffff1673ffffffffffffffffffffffffffffffffffffffff1681526020019081526020016000206000828254611f6d9190614488565b92505081905550816002600083815260200190815260200160002060006101000a81548173ffffffffffffffffffffffffffffffffffffffff021916908373ffffffffffffffffffffffffffffffffffffffff160217905550808273ffffffffffffffffffffffffffffffffffffffff168473ffffffffffffffffffffffffffffffffffffffff167fddf252ad1be2c89b69c2b068fc378daa952ba7f163c4a11628f55a4df523b3ef60405160405180910390a461202c838383612a24565b505050565b60008060008084519050600092505b808210156121db57600085838151811061205d5761205c6141c0565b5b602001015160f81c60f81b9050608060f81b817effffffffffffffffffffffffffffffffffffffffffffffffffffffffffffff191610156120ac576001836120a59190614488565b92506121c7565b60e060f81b817effffffffffffffffffffffffffffffffffffffffffffffffffffffffffffff191610156120ee576002836120e79190614488565b92506121c6565b60f060f81b817effffffffffffffffffffffffffffffffffffffffffffffffffffffffffffff19161015612130576003836121299190614488565b92506121c5565b60f8801b817effffffffffffffffffffffffffffffffffffffffffffffffffffffffffffff191610156121715760048361216a9190614488565b92506121c4565b60fc60f81b817effffffffffffffffffffffffffffffffffffffffffffffffffffffffffffff191610156121b3576005836121ac9190614488565b92506121c3565b6006836121c09190614488565b92505b5b5b5b5b5082806121d39061421e565b935050612040565b829350505050919050565b8173ffffffffffffffffffffffffffffffffffffffff168373ffffffffffffffffffffffffffffffffffffffff161415612255576040517f08c379a000000000000000000000000000000000000000000000000000000000815260040161224c9061452a565b60405180910390fd5b80600560008573ffffffffffffffffffffffffffffffffffffffff1673ffffffffffffffffffffffffffffffffffffffff16815260200190815260200160002060008473ffffffffffffffffffffffffffffffffffffffff1673ffffffffffffffffffffffffffffffffffffffff16815260200190815260200160002060006101000a81548160ff0219169083151502179055508173ffffffffffffffffffffffffffffffffffffffff168373ffffffffffffffffffffffffffffffffffffffff167f17307eab39ab6107e8899845ad3d59bd9653f200f220920489ca2b5937696c31836040516123469190612fe6565b60405180910390a3505050565b61235e848484611dca565b61236a84848484612a29565b6123a9576040517f08c379a00000000000000000000000000000000000000000000000000000000081526004016123a0906145bc565b60405180910390fd5b50505050565b606060405180602001604052806000815250905090565b60606123d182611bbf565b612410576040517f08c379a00000000000000000000000000000000000000000000000000000000081526004016124079061464e565b60405180910390fd5b600061241a6123af565b9050600081511161243a5760405180602001604052806000815250612465565b806124448461247b565b604051602001612455929190613d14565b6040516020818303038152906040525b915050919050565b600081600001549050919050565b606060008214156124c3576040518060400160405280600181526020017f300000000000000000000000000000000000000000000000000000000000000081525090506125d7565b600082905060005b600082146124f55780806124de9061421e565b915050600a826124ee919061469d565b91506124cb565b60008167ffffffffffffffff811115612511576125106132f1565b5b6040519080825280601f01601f1916602001820160405280156125435781602001600182028036833780820191505090505b5090505b600085146125d05760018261255c9190614454565b9150600a8561256b91906146ce565b60306125779190614488565b60f81b81838151811061258d5761258c6141c0565b5b60200101907effffffffffffffffffffffffffffffffffffffffffffffffffffffffffffff1916908160001a905350600a856125c9919061469d565b9450612547565b8093505050505b919050565b612678848484846040516024016125f694939291906146ff565b6040516020818303038152906040527f9fd009f5000000000000000000000000000000000000000000000000000000007bffffffffffffffffffffffffffffffffffffffffffffffffffffffff19166020820180517bffffffffffffffffffffffffffffffffffffffffffffffffffffffff83818316178352505050506129f6565b50505050565b606060008251905060008114156126a75760405180602001604052806000815250915050612811565b600060036002836126b89190614488565b6126c2919061469d565b60046126ce9190614759565b905060006020826126df9190614488565b67ffffffffffffffff8111156126f8576126f76132f1565b5b6040519080825280601f01601f19166020018201604052801561272a5781602001600182028036833780820191505090505b5090506000604051806060016040528060408152602001614ae9604091399050600181016020830160005b868110156127ce5760038101905062ffffff818a015116603f8160121c168401518060081b905060ff603f83600c1c1686015116810190508060081b905060ff603f8360061c1686015116810190508060081b905060ff603f831686015116810190508060e01b90508084526004840193505050612755565b5060038606600181146127e857600281146127f857612803565b613d3d60f01b6002830352612803565b603d60f81b60018303525b508484525050819450505050505b919050565b6128ac8160405160240161282a919061309a565b6040516020818303038152906040527f41304fac000000000000000000000000000000000000000000000000000000007bffffffffffffffffffffffffffffffffffffffffffffffffffffffff19166020820180517bffffffffffffffffffffffffffffffffffffffffffffffffffffffff83818316178352505050506129f6565b50565b6128c9828260405180602001604052806000815250612bb1565b5050565b6128d682611bbf565b612915576040517f08c379a000000000000000000000000000000000000000000000000000000000815260040161290c90614825565b60405180910390fd5b8060066000848152602001908152602001600020908051906020019061293c929190612e8f565b505050565b6001816000016000828254019250508190555050565b6129f183838360405160240161296f93929190614845565b6040516020818303038152906040527fa3f5c739000000000000000000000000000000000000000000000000000000007bffffffffffffffffffffffffffffffffffffffffffffffffffffffff19166020820180517bffffffffffffffffffffffffffffffffffffffffffffffffffffffff83818316178352505050506129f6565b505050565b60008151905060006a636f6e736f6c652e6c6f679050602083016000808483855afa5050505050565b505050565b505050565b6000612a4a8473ffffffffffffffffffffffffffffffffffffffff16612c0c565b15612ba4578373ffffffffffffffffffffffffffffffffffffffff1663150b7a02612a73611c2b565b8786866040518563ffffffff1660e01b8152600401612a9594939291906148df565b6020604051808303816000875af1925050508015612ad157506040513d601f19601f82011682018060405250810190612ace9190614940565b60015b612b54573d8060008114612b01576040519150601f19603f3d011682016040523d82523d6000602084013e612b06565b606091505b50600081511415612b4c576040517f08c379a0000000000000000000000000000000000000000000000000000000008152600401612b43906145bc565b60405180910390fd5b805181602001fd5b63150b7a0260e01b7bffffffffffffffffffffffffffffffffffffffffffffffffffffffff1916817bffffffffffffffffffffffffffffffffffffffffffffffffffffffff191614915050612ba9565b600190505b949350505050565b612bbb8383612c2f565b612bc86000848484612a29565b612c07576040517f08c379a0000000000000000000000000000000000000000000000000000000008152600401612bfe906145bc565b60405180910390fd5b505050565b6000808273ffffffffffffffffffffffffffffffffffffffff163b119050919050565b600073ffffffffffffffffffffffffffffffffffffffff168273ffffffffffffffffffffffffffffffffffffffff161415612c9f576040517f08c379a0000000000000000000000000000000000000000000000000000000008152600401612c96906149b9565b60405180910390fd5b612ca881611bbf565b15612ce8576040517f08c379a0000000000000000000000000000000000000000000000000000000008152600401612cdf90614a25565b60405180910390fd5b612cf460008383612a1f565b6001600360008473ffffffffffffffffffffffffffffffffffffffff1673ffffffffffffffffffffffffffffffffffffffff1681526020019081526020016000206000828254612d449190614488565b92505081905550816002600083815260200190815260200160002060006101000a81548173ffffffffffffffffffffffffffffffffffffffff021916908373ffffffffffffffffffffffffffffffffffffffff160217905550808273ffffffffffffffffffffffffffffffffffffffff16600073ffffffffffffffffffffffffffffffffffffffff167fddf252ad1be2c89b69c2b068fc378daa952ba7f163c4a11628f55a4df523b3ef60405160405180910390a4612e0560008383612a24565b5050565b828054612e159061386a565b90600052602060002090601f016020900481019282612e375760008555612e7e565b82601f10612e5057803560ff1916838001178555612e7e565b82800160010185558215612e7e579182015b82811115612e7d578235825591602001919060010190612e62565b5b509050612e8b9190612f15565b5090565b828054612e9b9061386a565b90600052602060002090601f016020900481019282612ebd5760008555612f04565b82601f10612ed657805160ff1916838001178555612f04565b82800160010185558215612f04579182015b82811115612f03578251825591602001919060010190612ee8565b5b509050612f119190612f15565b5090565b5b80821115612f2e576000816000905550600101612f16565b5090565b6000604051905090565b600080fd5b600080fd5b60007fffffffff0000000000000000000000000000000000000000000000000000000082169050919050565b612f7b81612f46565b8114612f8657600080fd5b50565b600081359050612f9881612f72565b92915050565b600060208284031215612fb457612fb3612f3c565b5b6000612fc284828501612f89565b91505092915050565b60008115159050919050565b612fe081612fcb565b82525050565b6000602082019050612ffb6000830184612fd7565b92915050565b600081519050919050565b600082825260208201905092915050565b60005b8381101561303b578082015181840152602081019050613020565b8381111561304a576000848401525b50505050565b6000601f19601f8301169050919050565b600061306c82613001565b613076818561300c565b935061308681856020860161301d565b61308f81613050565b840191505092915050565b600060208201905081810360008301526130b48184613061565b905092915050565b6000819050919050565b6130cf816130bc565b81146130da57600080fd5b50565b6000813590506130ec816130c6565b92915050565b60006020828403121561310857613107612f3c565b5b6000613116848285016130dd565b91505092915050565b600073ffffffffffffffffffffffffffffffffffffffff82169050919050565b600061314a8261311f565b9050919050565b61315a8161313f565b82525050565b60006020820190506131756000830184613151565b92915050565b6131848161313f565b811461318f57600080fd5b50565b6000813590506131a18161317b565b92915050565b600080604083850312156131be576131bd612f3c565b5b60006131cc85828601613192565b92505060206131dd858286016130dd565b9150509250929050565b600080fd5b600080fd5b600080fd5b60008083601f84011261320c5761320b6131e7565b5b8235905067ffffffffffffffff811115613229576132286131ec565b5b602083019150836001820283011115613245576132446131f1565b5b9250929050565b6000806020838503121561326357613262612f3c565b5b600083013567ffffffffffffffff81111561328157613280612f41565b5b61328d858286016131f6565b92509250509250929050565b6000806000606084860312156132b2576132b1612f3c565b5b60006132c086828701613192565b93505060206132d186828701613192565b92505060406132e2868287016130dd565b9150509250925092565b600080fd5b7f4e487b7100000000000000000000000000000000000000000000000000000000600052604160045260246000fd5b61332982613050565b810181811067ffffffffffffffff82111715613348576133476132f1565b5b80604052505050565b600061335b612f32565b90506133678282613320565b919050565b600067ffffffffffffffff821115613387576133866132f1565b5b61339082613050565b9050602081019050919050565b82818337600083830152505050565b60006133bf6133ba8461336c565b613351565b9050828152602081018484840111156133db576133da6132ec565b5b6133e684828561339d565b509392505050565b600082601f830112613403576134026131e7565b5b81356134138482602086016133ac565b91505092915050565b60006020828403121561343257613431612f3c565b5b600082013567ffffffffffffffff8111156134505761344f612f41565b5b61345c848285016133ee565b91505092915050565b60006020828403121561347b5761347a612f3c565b5b600061348984828501613192565b91505092915050565b61349b816130bc565b82525050565b60006020820190506134b66000830184613492565b92915050565b6134c581612fcb565b81146134d057600080fd5b50565b6000813590506134e2816134bc565b92915050565b600080604083850312156134ff576134fe612f3c565b5b600061350d85828601613192565b925050602061351e858286016134d3565b9150509250929050565b600067ffffffffffffffff821115613543576135426132f1565b5b61354c82613050565b9050602081019050919050565b600061356c61356784613528565b613351565b905082815260208101848484011115613588576135876132ec565b5b61359384828561339d565b509392505050565b600082601f8301126135b0576135af6131e7565b5b81356135c0848260208601613559565b91505092915050565b600080600080608085870312156135e3576135e2612f3c565b5b60006135f187828801613192565b945050602061360287828801613192565b9350506040613613878288016130dd565b925050606085013567ffffffffffffffff81111561363457613633612f41565b5b6136408782880161359b565b91505092959194509250565b6000806000806040858703121561366657613665612f3c565b5b600085013567ffffffffffffffff81111561368457613683612f41565b5b613690878288016131f6565b9450945050602085013567ffffffffffffffff8111156136b3576136b2612f41565b5b6136bf878288016131f6565b925092505092959194509250565b600080604083850312156136e4576136e3612f3c565b5b60006136f285828601613192565b925050602061370385828601613192565b9150509250929050565b600081519050919050565b600082825260208201905092915050565b6000819050602082019050919050565b600082825260208201905092915050565b600061375582613001565b61375f8185613739565b935061376f81856020860161301d565b61377881613050565b840191505092915050565b600061378f838361374a565b905092915050565b6000602082019050919050565b60006137af8261370d565b6137b98185613718565b9350836020820285016137cb85613729565b8060005b8581101561380757848403895281516137e88582613783565b94506137f383613797565b925060208a019950506001810190506137cf565b50829750879550505050505092915050565b6000602082019050818103600083015261383381846137a4565b905092915050565b7f4e487b7100000000000000000000000000000000000000000000000000000000600052602260045260246000fd5b6000600282049050600182168061388257607f821691505b602082108114156138965761389561383b565b5b50919050565b7f4552433732313a20617070726f76656420717565727920666f72206e6f6e657860008201527f697374656e7420746f6b656e0000000000000000000000000000000000000000602082015250565b60006138f8602c8361300c565b91506139038261389c565b604082019050919050565b60006020820190508181036000830152613927816138eb565b9050919050565b7f4552433732313a20617070726f76616c20746f2063757272656e74206f776e6560008201527f7200000000000000000000000000000000000000000000000000000000000000602082015250565b600061398a60218361300c565b91506139958261392e565b604082019050919050565b600060208201905081810360008301526139b98161397d565b9050919050565b7f4552433732313a20617070726f76652063616c6c6572206973206e6f74206f7760008201527f6e6572206e6f7220617070726f76656420666f7220616c6c0000000000000000602082015250565b6000613a1c60388361300c565b9150613a27826139c0565b604082019050919050565b60006020820190508181036000830152613a4b81613a0f565b9050919050565b600081905092915050565b6000613a698385613a52565b9350613a7683858461339d565b82840190509392505050565b6000613a8f828486613a5d565b91508190509392505050565b7f4552433732313a207472616e736665722063616c6c6572206973206e6f74206f60008201527f776e6572206e6f7220617070726f766564000000000000000000000000000000602082015250565b6000613af760318361300c565b9150613b0282613a9b565b604082019050919050565b60006020820190508181036000830152613b2681613aea565b9050919050565b7f4552433732313a206f776e657220717565727920666f72206e6f6e657869737460008201527f656e7420746f6b656e0000000000000000000000000000000000000000000000602082015250565b6000613b8960298361300c565b9150613b9482613b2d565b604082019050919050565b60006020820190508181036000830152613bb881613b7c565b9050919050565b7f4552433732313a2062616c616e636520717565727920666f7220746865207a6560008201527f726f206164647265737300000000000000000000000000000000000000000000602082015250565b6000613c1b602a8361300c565b9150613c2682613bbf565b604082019050919050565b60006020820190508181036000830152613c4a81613c0e565b9050919050565b7f45524337323155524953746f726167653a2055524920717565727920666f722060008201527f6e6f6e6578697374656e7420746f6b656e000000000000000000000000000000602082015250565b6000613cad60318361300c565b9150613cb882613c51565b604082019050919050565b60006020820190508181036000830152613cdc81613ca0565b9050919050565b6000613cee82613001565b613cf88185613a52565b9350613d0881856020860161301d565b80840191505092915050565b6000613d208285613ce3565b9150613d2c8284613ce3565b91508190509392505050565b6000613d44838561300c565b9350613d5183858461339d565b613d5a83613050565b840190509392505050565b60006020820190508181036000830152613d80818486613d38565b90509392505050565b600081519050613d98816130c6565b92915050565b600060208284031215613db457613db3612f3c565b5b6000613dc284828501613d89565b91505092915050565b7f4e6f7420656e6f756768204d6174696320706169640000000000000000000000600082015250565b6000613e0160158361300c565b9150613e0c82613dcb565b602082019050919050565b60006020820190508181036000830152613e3081613df4565b9050919050565b7f2e00000000000000000000000000000000000000000000000000000000000000600082015250565b6000613e6d600183613a52565b9150613e7882613e37565b600182019050919050565b60008190508160005260206000209050919050565b60008154613ea58161386a565b613eaf8186613a52565b94506001821660008114613eca5760018114613edb57613f0e565b60ff19831686528186019350613f0e565b613ee485613e83565b60005b83811015613f0657815481890152600182019150602081019050613ee7565b838801955050505b50505092915050565b6000613f24828587613a5d565b9150613f2f82613e60565b9150613f3b8284613e98565b9150819050949350505050565b6000613f548286613e98565b9150613f608285613ce3565b9150613f6c8284613e98565b9150819050949350505050565b7f7b226e616d65223a202200000000000000000000000000000000000000000000600082015250565b6000613faf600a83613a52565b9150613fba82613f79565b600a82019050919050565b7f222c20226465736372697074696f6e223a20224120646f6d61696e206f6e207460008201527f686520416c6669204e616d652073657276696365222c2022696d616765223a2060208201527f22646174613a696d6167652f7376672b786d6c3b6261736536342c0000000000604082015250565b6000614047605b83613a52565b915061405282613fc5565b605b82019050919050565b7f222c226c656e677468223a220000000000000000000000000000000000000000600082015250565b6000614093600c83613a52565b915061409e8261405d565b600c82019050919050565b7f227d000000000000000000000000000000000000000000000000000000000000600082015250565b60006140df600283613a52565b91506140ea826140a9565b600282019050919050565b600061410082613fa2565b915061410c8286613ce3565b91506141178261403a565b91506141238285613ce3565b915061412e82614086565b915061413a8284613ce3565b9150614145826140d2565b9150819050949350505050565b7f646174613a6170706c69636174696f6e2f6a736f6e3b6261736536342c000000600082015250565b6000614188601d83613a52565b915061419382614152565b601d82019050919050565b60006141a98261417b565b91506141b58284613ce3565b915081905092915050565b7f4e487b7100000000000000000000000000000000000000000000000000000000600052603260045260246000fd5b7f4e487b7100000000000000000000000000000000000000000000000000000000600052601160045260246000fd5b6000614229826130bc565b91507fffffffffffffffffffffffffffffffffffffffffffffffffffffffffffffffff82141561425c5761425b6141ef565b5b600182019050919050565b600060408201905081810360008301526142818185613061565b905081810360208301526142958184613061565b90509392505050565b7f4552433732313a206f70657261746f7220717565727920666f72206e6f6e657860008201527f697374656e7420746f6b656e0000000000000000000000000000000000000000602082015250565b60006142fa602c8361300c565b91506143058261429e565b604082019050919050565b60006020820190508181036000830152614329816142ed565b9050919050565b7f4552433732313a207472616e736665722066726f6d20696e636f72726563742060008201527f6f776e6572000000000000000000000000000000000000000000000000000000602082015250565b600061438c60258361300c565b915061439782614330565b604082019050919050565b600060208201905081810360008301526143bb8161437f565b9050919050565b7f4552433732313a207472616e7366657220746f20746865207a65726f2061646460008201527f7265737300000000000000000000000000000000000000000000000000000000602082015250565b600061441e60248361300c565b9150614429826143c2565b604082019050919050565b6000602082019050818103600083015261444d81614411565b9050919050565b600061445f826130bc565b915061446a836130bc565b92508282101561447d5761447c6141ef565b5b828203905092915050565b6000614493826130bc565b915061449e836130bc565b9250827fffffffffffffffffffffffffffffffffffffffffffffffffffffffffffffffff038211156144d3576144d26141ef565b5b828201905092915050565b7f4552433732313a20617070726f766520746f2063616c6c657200000000000000600082015250565b600061451460198361300c565b915061451f826144de565b602082019050919050565b6000602082019050818103600083015261454381614507565b9050919050565b7f4552433732313a207472616e7366657220746f206e6f6e20455243373231526560008201527f63656976657220696d706c656d656e7465720000000000000000000000000000602082015250565b60006145a660328361300c565b91506145b18261454a565b604082019050919050565b600060208201905081810360008301526145d581614599565b9050919050565b7f4552433732314d657461646174613a2055524920717565727920666f72206e6f60008201527f6e6578697374656e7420746f6b656e0000000000000000000000000000000000602082015250565b6000614638602f8361300c565b9150614643826145dc565b604082019050919050565b600060208201905081810360008301526146678161462b565b9050919050565b7f4e487b7100000000000000000000000000000000000000000000000000000000600052601260045260246000fd5b60006146a8826130bc565b91506146b3836130bc565b9250826146c3576146c261466e565b5b828204905092915050565b60006146d9826130bc565b91506146e4836130bc565b9250826146f4576146f361466e565b5b828206905092915050565b600060808201905081810360008301526147198187613061565b9050818103602083015261472d8186613061565b905081810360408301526147418185613061565b90506147506060830184613492565b95945050505050565b6000614764826130bc565b915061476f836130bc565b9250817fffffffffffffffffffffffffffffffffffffffffffffffffffffffffffffffff04831182151516156147a8576147a76141ef565b5b828202905092915050565b7f45524337323155524953746f726167653a2055524920736574206f66206e6f6e60008201527f6578697374656e7420746f6b656e000000000000000000000000000000000000602082015250565b600061480f602e8361300c565b915061481a826147b3565b604082019050919050565b6000602082019050818103600083015261483e81614802565b9050919050565b6000606082019050818103600083015261485f8186613061565b905061486e6020830185613492565b81810360408301526148808184613061565b9050949350505050565b600081519050919050565b600082825260208201905092915050565b60006148b18261488a565b6148bb8185614895565b93506148cb81856020860161301d565b6148d481613050565b840191505092915050565b60006080820190506148f46000830187613151565b6149016020830186613151565b61490e6040830185613492565b818103606083015261492081846148a6565b905095945050505050565b60008151905061493a81612f72565b92915050565b60006020828403121561495657614955612f3c565b5b60006149648482850161492b565b91505092915050565b7f4552433732313a206d696e7420746f20746865207a65726f2061646472657373600082015250565b60006149a360208361300c565b91506149ae8261496d565b602082019050919050565b600060208201905081810360008301526149d281614996565b9050919050565b7f4552433732313a20746f6b656e20616c7265616479206d696e74656400000000600082015250565b6000614a0f601c8361300c565b9150614a1a826149d9565b602082019050919050565b60006020820190508181036000830152614a3e81614a02565b905091905056fe0a2d2d2d2d2d2d2d2d2d2d2d2d2d2d2d2d2d2d2d2d2d2d2d2d2d2d2d2d2d2d2d2d2d2d2d2d2d2d2d2d2d2d2d2d2d2d2d2d2d2d2d2d2d2d2d2d5265676973746572696e672025732e2573206f6e2074686520636f6e7472616374207769746820746f6b656e49442025642d2d2d2d2d2d2d2d2d2d2d2d2d2d2d2d2d2d2d2d2d2d2d2d2d2d2d2d2d2d2d2d2d2d2d2d2d2d2d2d2d2d2d2d2d2d2d2d2d2d2d2d2d2d2d2d0a4142434445464748494a4b4c4d4e4f505152535455565758595a6162636465666768696a6b6c6d6e6f707172737475767778797a303132333435363738392b2fa26469706673582212200efb75ff2da443b17a4546942efe16ca48544278fd2c60cbbfb867c811213d6a64736f6c634300080a00333c7376672069643d224c617965725f312220646174612d6e616d653d224c6179657220312220786d6c6e733d22687474703a2f2f7777772e77332e6f72672f323030302f7376672220786d6c6e733a786c696e6b3d22687474703a2f2f7777772e77332e6f72672f313939392f786c696e6b222076696577426f783d223020302032373020323730223e3c646566733e3c7374796c653e2e636c732d317b66696c6c3a75726c28236c696e6561722d6772616469656e74293b7d2e636c732d327b66696c6c3a236666663b7d3c2f7374796c653e3c6c696e6561724772616469656e742069643d226c696e6561722d6772616469656e74222079313d22353732222078323d22323730222079323d2238343222206772616469656e745472616e73666f726d3d227472616e736c6174652830202d3537322922206772616469656e74556e6974733d227573657253706163654f6e557365223e3c73746f70206f66667365743d2230222073746f702d636f6c6f723d2223636235656565222f3e3c73746f70206f66667365743d2231222073746f702d636f6c6f723d2223306364376534222073746f702d6f7061636974793d22302e3939222f3e3c2f6c696e6561724772616469656e743e3c2f646566733e3c7061746820636c6173733d22636c732d312220643d224d302c30483237305632373048305a22207472616e73666f726d3d227472616e736c6174652830203029222f3e3c7061746820636c6173733d22636c732d322220643d224d37322e392c34322e3961342e33332c342e33332c302c302c302d342e342c306c2d31302e312c362d362e382c332e392d31302e312c3661342e33332c342e33332c302c302c312d342e342c306c2d382d342e3761342e38392c342e38392c302c302c312d312e362d312e362c342e32382c342e32382c302c302c312d2e362d322e3256343161342e32382c342e32382c302c302c312c2e362d322e322c342e312c342e312c302c302c312c312e362d312e364c33372c33322e3661342e33332c342e33332c302c302c312c342e342c306c372e392c342e3661342e38392c342e38392c302c302c312c312e362c312e362c342e32382c342e32382c302c302c312c2e362c322e3276366c362e382d342e31762d3661342e32382c342e32382c302c302c302d2e362d322e322c342e312c342e312c302c302c302d312e362d312e364c34312e352c32342e3461382e35312c382e35312c302c302c302d322e322d2e342c342e35362c342e35362c302c302c302d322e322e364c32322e322c33332e3361342e312c342e312c302c302c302d312e362c312e3641332e39342c332e39342c302c302c302c32302c33375635342e3461342e32382c342e32382c302c302c302c2e362c322e322c342e312c342e312c302c302c302c312e362c312e366c31342e392c382e3761342e33332c342e33332c302c302c302c342e342c306c31302d352e392c362e382d342e314c36382e342c353161342e33332c342e33332c302c302c312c342e342c306c372e392c342e3661342e38392c342e38392c302c302c312c312e362c312e362c342e32382c342e32382c302c302c312c2e362c322e3276392e3361342e32382c342e32382c302c302c312d2e362c322e322c342e312c342e312c302c302c312d312e362c312e366c2d372e392c342e3761342e33332c342e33332c302c302c312d342e342c306c2d372e392d342e3641342e38392c342e38392c302c302c312c35382e392c373161342e32382c342e32382c302c302c312d2e362d322e32762d366c2d362e382c342e31763661342e32382c342e32382c302c302c302c2e362c322e322c342e312c342e312c302c302c302c312e362c312e366c31342e392c382e3761342e33332c342e33332c302c302c302c342e342c306c31342e392d382e3761342e312c342e312c302c302c302c312e362d312e362c342e32382c342e32382c302c302c302c2e362d322e325635352e3561342e32382c342e32382c302c302c302d2e362d322e322c342e312c342e312c302c302c302d312e362d312e366c2d31352d382e385a22207472616e73666f726d3d227472616e736c6174652830203029222f3e3c672069643d224c617965725f322220646174612d6e616d653d224c617965722032223e3c672069643d224c617965725f312d322220646174612d6e616d653d224c6179657220312d32223e3c7061746820636c6173733d22636c732d322220643d224d3230392e322c3133332e366c2d31302e372d31302e312d34362e362c34342e3263302d2e342d2e312d2e362d2e312d2e38762d362e3461322c322c302c302c312c2e372d312e3663372e332d362e392c31342e362d31332e392c32312e392d32302e386c32332e342d32322e322e372d2e372c31302e362c31302e312c32312e342d32302e3263302c2e352e312e382e312c312e317631312e3261312e36312c312e36312c302c302c312d2e362c312e33632d312e372c312e372d332e352c332e332d352e342c352e32762d342e366c2d2e322d2e315a22207472616e73666f726d3d227472616e736c6174652830203029222f3e3c7061746820636c6173733d22636c732d322220643d224d3138372e392c3133392e336c31302e372c31302e312c34362e352d34342e3261312e30392c312e30392c302c302c312c2e312e35763761322e33382c322e33382c302c302c312d2e362c312e31632d342e342c342e332d382e382c382e332d31332e312c31322e356c2d32342e382c32332e362d372e372c372e33632d2e322e322d2e342e332d2e352e346c2d31302e362d31302e312d32312e332c32302e3263302d2e342d2e312d2e372d2e312d2e39563135352e3261312e36392c312e36392c302c302c312c2e332d3163312e372d312e372c332e352d332e342c352e332d352e312e312d2e312e322d2e312e332d2e3276342e356c2e322e315a22207472616e73666f726d3d227472616e736c6174652830203029222f3e3c7061746820636c6173733d22636c732d322220643d224d3137322e352c3131392e3376313961322c322c302c302c312d2e372c312e36632d312e352c312e342d332c322e382d342e352c342e332d2e322e322d2e342e332d2e372e36563130352e316c32312c31392e392d342e342c342e312d31302e342d392e395a22207472616e73666f726d3d227472616e736c6174652830203029222f3e3c7061746820636c6173733d22636c732d322220643d224d3232342e362c3135332e38563133342e3561322e31312c322e31312c302c302c312c2e352d312e3363312e362d312e362c332e322d332e312c342e392d342e372e322d2e312e342d2e332e362d2e347633392e376c2d32312d31392e392c342d332e38632e352d2e342e372c302c312c2e326c382e382c382e334131332e34372c31332e34372c302c302c302c3232342e362c3135332e385a22207472616e73666f726d3d227472616e736c6174652830203029222f3e3c2f673e3c2f673e3c2f7376673e",
    "linkReferences": {},
    "deployedLinkReferences": {}
}